:02000002B0004C
:1040000000400B005C520B00000006000C00050293
:084010000401E50C00000000B2
:04401800784F0B00D2
:10401C0009480A49884208B505D0094A824202D0AB
:10402C00121A00F0F1FE0748074A0021121A00F09C
:10403C00F9FE014808BD00BF40E60320C8510B0043
:10404C00ACE60320ACE60320EDE7032070B5074E89
:10405C00074C00F0A9FDA41BA4080025AC4200D11C
:10406C0070BD56F8043B98470135F7E770510B00CB
:10407C0094510B0000F013B808B500F01BF8BDE824
:10408C00084000F049BD00F0C9B900F0CFB9007884
:10409C00B0FA80F04009704701230370704708B5EF
:1040AC000021072000F0F0FDBDE8084001210520AB
:1040BC0000F0EABD08B5072000F010FE014600B183
:1040CC000121BDE80840052000F0EFBD10B5074BFD
:1040DC00074A9A600024C3E90044032000F012F957
:1040EC0021460120BDE8104000F014B9ACE60320D5
:1040FC000000FFFF08B5024B1B685B6C019308BD09
:10410C004802030008B5024B1B685B68019308BDAD
:10411C001802030008B5024B1B685B69019308BDCC
:10412C001802030008B5024B1B689B68019308BD7D
:10413C002C02030008B5024B1B68DB68019308BD19
:10414C002C02030008B5024B1B681B69019308BDC8
:10415C002C02030008B5024B1B685B69019308BD78
:10416C002C02030008B5024B1B681B6A019308BDA7
:10417C002802030008B5024B1B685B6A019308BD5B
:10418C002802030008B5024B1B689B6A019308BD0B
:10419C002802030008B5024B1B68DB6A019308BDBB
:1041AC002802030008B5024B1B681B6B019308BD6A
:1041BC002802030008B5024B1B685B6B019308BD1A
:1041CC002802030008B5024B1B681B6C019308BD49
:1041DC002802030008B5024B1B685B69019308BDFC
:1041EC006402030008B5024B1B689B68019308BD71
:1041FC006802030008B5024B1B68DB68019308BD1D
:10420C006802030008B5024B1B68DB69019308BD0B
:10421C003002030008B5024B1B681B6A019308BDF2
:10422C003002030008B5024B1B68DB68019308BD24
:10423C003C02030008B5024B1B681B69019308BDC7
:10424C003C02030008B5024B1B685B69019308BD77
:10425C003C02030008B5024B1B689B69019308BD27
:10426C003C02030008B5024B1B68DB69019308BDD7
:10427C003C02030008B5024B1B681B6A019308BD86
:10428C003C02030008B5024B1B689B6A019308BDF6
:10429C003C02030008B5024B1B681B6C019308BD64
:1042AC003C02030008B5024B1B681B68019308BD58
:1042BC004C02030008B5024B1B681B69019308BD37
:1042CC004C02030008B5024B1B685B69019308BDE7
:1042DC004C02030008B5024B1B689B69019308BD97
:1042EC004C02030008B5024B1B68DB69019308BD47
:1042FC004C02030008B5024B1B681B6A019308BDF6
:10430C004C02030008B5024B1B685B68019308BDA7
:10431C002002030008B5024B1B68DB6A019308BD41
:10432C002002030008B5034B1B68D3F888300193B7
:10433C0008BD00002002030008B5034B1B68D3F82E
:10434C009430019308BD00002002030008B5024B15
:10435C001B68DB6B019308BD4402030008B5024BDC
:10436C001B685B68019308BD4002030008B5024B53
:10437C001B689B68019308BD4002030008B5024B03
:10438C001B68DB68019308BD4002030008B5024BB3
:10439C001B681B69019308BD4002030008B5024B62
:1043AC001B685B69019308BD4002030008B5024B12
:1043BC001B689B69019308BD4002030008B5024BC2
:1043CC001B68DB69019308BD4002030008B5024B72
:1043DC001B681B6A019308BD4002030008B5024B21
:1043EC001B681B6B019308BD4002030008B5024B10
:1043FC001B685B6B019308BD4002030008B5024BC0
:10440C001B681B6C019308BD4002030008B5024BEE
:10441C001B685B6C019308BD4002030008B5024B9E
:10442C001B681B68019308BD1C02030008B5024BF6
:10443C001B685B68019308BD1C02030008B5024BA6
:10444C001B681B6C019308BD1C02030008B5024BD2
:10445C001B685B6C019308BD1C020300024800231F
:10446C000360FFF747BE00BFB8E603200022406898
:10447C001146FFF7ABBF002240681146FFF7B6BFED
:10448C0040680022FFF7AABF4068002281F00101BA
:10449C00FFF794BF002340681A461946FFF786BF02
:1044AC00002340681A461946FFF778BF002240687F
:1044BC001146FFF76BBF002240681146FFF756BF4D
:1044CC00406800220221FFF759BF002340681A46BA
:1044DC00FFF744BF024B03225A60024A1A6070472E
:1044EC00BCE60320944F0B007047F8B50646154602
:1044FC000C468F18BC4206D0336814F8011B9B681D
:10450C0030469847F6E72846F8BD007C0022FFF7B6
:10451C0029BE007C0021FFF72DBE007C0021FFF797
:10452C0031BE007C0021FFF735BE007C0021FFF777
:10453C0039BE10B514210446FFF7A7FD204610BD67
:10454C0010B54FF47A73044608460021C4E90113F0
:10455C00034B236020741146FFF734FE204610BD38
:10456C00D04F0B00704710B518210446FFF78DFD96
:10457C00204610BDF0B5037D062B8DB00E4600F124
:10458C0004074FF0000412D000F1080515F8011DC6
:10459C000A22304600F043F9AF42044419D0002CF3
:1045AC00F4D02E21304600F037F90444EEE72F23E7
:1045BC006A4639460A208DF80040FFF70BFE684624
:1045CC0000F066FC33680246DB6869463046984763
:1045DC00044620460DB0F0BD10B5054B0446112223
:1045EC0040F8043B002100F01DFC204610BD00BF2C
:1045FC00F84F0B000346074A10B543F8042B01F1A2
:10460C00100251F8044B43F8044B9142F9D10A784B
:10461C001A7010BDF84F0B0010B59DF8084044EA15
:10462C00032343EA024242EA016104234160037519
:10463C0010BD000007B5064B0360CB7800938B7858
:10464C004A780978FFF7E8FF03B05DF804FB00BF78
:10465C00F84F0B00014B024A1A607047C4E6032066
:10466C0004500B00002340681A46FFF777BE4068E1
:10467C0000220221FFF782BE002240681146FFF79C
:10468C0075BE002240681146FFF780BE00234068CB
:10469C001A461946FFF782BE002340681A4619468F
:1046AC00FFF784BE40680021FFF7A8BE40680021D8
:1046BC00FFF7ACBE4068002281F00101FFF77EBE1F
:1046CC0040680022FFF78ABE002240681146FFF7BF
:1046DC008DBE002240681146FFF778BE2DE9F043ED
:1046EC0095B014460D460746FFF776FF00211C22B5
:1046FC000DA8009100F096FB40230C9320466B46CE
:10470C000CAA0021FFF776FD044600284BD1024687
:10471C0001216868FFF73AFE02218046224668684C
:10472C00FFF734FE009E81462146002E3BD0002927
:10473C0039D17368022B03D00A2B11D0F669F4E738
:10474C00B8F1000FFAD0716906A8043107ADFFF774
:10475C0071FF0FCD3C1D0FC42B6823704146EDE754
:10476C00B9F1000FEAD07469102201A800F05AFBCD
:10477C0006238DF8143001AD04F1080318341868C1
:10478C0059682A4603C20833A3421546F7D101A93A
:10479C0006A807ADFFF72EFF0FCD3C1D0FC42B68ED
:1047AC0023704946CAE70098FFF71CFD384615B040
:1047BC00BDE8F083024B034A1A6000225A6070472E
:1047CC00C8E6032010500B00F8B506460D468F18AE
:1047DC000024BD420CD0336815F8011B9B68304691
:1047EC009847031E01DB1C44F3E7002C08BF1C4652
:1047FC002046F8BD13B50446084659B1019100F0A6
:10480C0047FB23680199DB680246204602B0BDE8ED
:10481C001040184702B010BD03689B68184730B5AC
:10482C008BB00023012A8DF8243098BF0A2209ACE2
:10483C000D46B1FBF2F101FB125303F0FF03092B00
:10484C0094BF30333733DBB2AA4204F8013DEFD9C1
:10485C002146FFF7CFFF0BB030BD0000014B00220B
:10486C009A607047D0E6032010B5044608462170C4
:10487C00FFF7C8FC00236360204610BD054B0222E5
:10488C001A60054B054A9A600020C3E90000FFF747
:10489C0039BD00BFECE60320E0E603200000FFFF7B
:1048AC00024B1A68024B1A60704700BF40E60320A7
:1048BC00F0E6032070474174704708B5007CFFF7A1
:1048CC00E1FC20EAE07008BD08B5007CFFF7B2FC03
:1048DC0020EAE07008BD08B5007CFFF7BBFC40EA9D
:1048EC00E07008BD08B5007CFFF7ACFC40EAE07056
:1048FC0008BD007CFFF7B6BC37B5457C04462DB12E
:10490C00207C03B0BDE83040FFF78CBC007C0191EB
:10491C00FFF7B8FC00280199F2DC284603B030BD43
:10492C0010B514210446FFF7B0FB204610BD000063
:10493C0010B54FF47A730446084611460022C4E9B8
:10494C000123044B2360012320746374FFF7A2FC42
:10495C00204610BD68500B0041747047704770477B
:10496C0008B50021007CFFF7B5FC40EAE07008BDFB
:10497C0008B50121007CFFF7ADFC40EAE07008BDF2
:10498C0008B5007CFFF79EFC20EAE07008BD08B576
:10499C00007CFFF78FFC20EAE07008BD13B50446DD
:1049AC00007C0191FFF78EFC0028019901DC607CF2
:1049BC0020B1207CFFF796FC20EAE07002B010BD1D
:1049CC00007CFFF797BC10B514210446FFF75DFB84
:1049DC00204610BD10B54FF47A73044608460021EA
:1049EC00C4E90113044B2360012320746374114642
:1049FC00FFF758FC204610BD98500B0010B5142240
:104A0C000446002100F00EFA204610BD10B50F4CE4
:104A1C0088B003A8FFF7F2FF2178BFF35B8F11F08A
:104A2C0001010FD120460191FFF731FB019948B1EB
:104A3C0003AA0748FFF7CEFF2046FFF72DFB0548DA
:104A4C0000F0DCF9024808B010BD00BFF4E603200A
:104A5C00F8E6032069490B00002240681146FFF775
:104A6C0095BC002240681146FFF7B0BC002240689C
:104A7C001146FFF7BBBC40680022FFF7AFBC406893
:104A8C00002281F00101FFF799BC002340681A460F
:104A9C001946FFF78BBC002340681A461946FFF7EE
:104AAC007DBC002240681146FFF760BC40680022C4
:104ABC000221FFF763BC002340681A46FFF74EBC87
:104ACC00024B04225A60024A1A6070470CE703201A
:104ADC00C8500B00014B1860704700BF44E6032020
:104AEC0008B50B4B43B1FFF791FF03681B6998475F
:104AFC00002801DDAFF30080064B43B100F058F9FC
:104B0C0003681B699847002801DDAFF3008008BDDE
:104B1C00000000000000000008B5FFF7E1FFFFF700
:104B2C00F9FA014B186008BD28E703200548064A2E
:104B3C00064908B5121A00F067F9054B054A1A60C8
:104B4C0008BD00BF00F4032004F40320C4510B0083
:104B5C0000F403201E1C279A07B5002300931A4665
:104B6C006FF07701FFF7E8FB03B05DF804FB000082
:104B7C0007B543880A2B08D0502B0BD1094B1B6867
:104B8C004BB103B05DF804EB1847FFF7E5FF03B03A
:104B9C005DF804FB002300931A466FF07701FFF7D2
:104BAC00CBFBF4E718E7032010B512480021FFF700
:104BBC004DFC114B1A68114B9A42114B0CBF012240
:104BCC0000221A7001D0FFF7B1FFFFF79BFA0446E1
:104BDC0000F030F90B4B13B12046AFF300800021ED
:104BEC000848FFF7B3FBBDE8104007480021FFF76A
:104BFC0099BB00BFE14A0B0000F403201E1C279A4E
:104C0C0014E70320000000007D4B0B00232813B594
:104C1C0002D9002002B010BDA0F10B03022B1AD850
:104C2C00174C2178BFF35B8F11F001010BD120469B
:104C3C000191FFF72CFA019928B11248FFF714FEE5
:104C4C002046FFF729FA0F4B1878FFF7E3FA0028F4
:104C5C00DFD10120DEE7012809D800F069F8002136
:104C6C00007CFFF7A7FA80F00100C0B2D2E7093848
:104C7C000128EED800F09CF8007CFFF7FBFAF2E775
:104C8C001CE7032020E70320232838B504460D46F3
:104C9C000AD8FF2908D0FFF7B9FF28B129462046CA
:104CAC00BDE83840FFF73EBA38BD38B504460D466E
:104CBC00FFF740FAFF2810D0062804D84D2323FA1A
:104CCC0000F0C30709D42046FFF7A0FF28B12946FE
:104CDC002046BDE83840FFF735BA38BD10B504465C
:104CEC00FFF728FA031FDBB2012B08D92046FFF788
:104CFC008DFF20B12046BDE81040FFF72BBA0020F5
:104D0C0010BD704738B52025142304460360856018
:104D1C0005610649284600F06FF804496060284692
:104D2C0000F06AF8E060204638BD00BFFC500B0074
:104D3C0030B50E4D2978BFF35B8F11F0010487B0AD
:104D4C0011D12846FFF7A3F968B101A8FFF7DAFFE4
:104D5C0001AA21460648FFF7F3FB2846FFF79CF90A
:104D6C00044800F04BF8024807B030BD2CE7032094
:104D7C0030E703200F4D0B007047000038B5044698
:104D8C0014252A46002100F04DF8258040250749BE
:104D9C0025812846258200F02FF8044960602846BA
:104DAC0000F02AF8E060204638BD00BFFC500B0034
:104DBC0030B50E4D2978BFF35B8F11F0010487B02D
:104DCC0011D12846FFF763F968B101A8FFF7D6FFA8
:104DDC0001AA21460648FFF7ABFD2846FFF75CF910
:104DEC00044800F00BF8024807B030BD44E703203C
:104DFC0048E70320854D0B00FFF745B9002301461A
:104E0C001A46184600F04CB80A44914200F1FF33A0
:104E1C0000D1704710B511F8014B03F8014F9142C6
:104E2C00F9D110BD02440346934200D1704703F8F8
:104E3C00011BF9E738B5104B1D68AB6B0446B3B9D1
:104E4C001820FFF7EBFA0246A86320B90B4B0C486D
:104E5C004221FFF7F3FA0B490B4BC0E900130B4B44
:104E6C0083600B23838100210120C2E90401AB6B19
:104E7C0000221C615A6138BD44E60320FD500B0032
:104E8C0014510B000E33CDAB34126DE6ECDE050085
:104E9C00034613F8012B002AFBD1181A013870476E
:104EAC002DE9F843DFF8B8800646D8F800001F4615
:104EBC000D46914600F056F8254B1C6834B9254C2C
:104ECC001C60254B13B11B68C4F8883063681F2B1A
:104EDC0007DDD8F8000000F047F84FF0FF30BDE8D0
:104EEC00F8834EB3D4F8880088B91C4B23B9D8F892
:104EFC00000000F038F8F0E74FF48470FFF78EFAFA
:104F0C000028F4D00023C0E94033C4F8880063685B
:104F1C0040F8239001229A4000EB8301D0F8003135
:104F2C001343C0F80031022EC1F8807002BFD0F8D4
:104F3C0004311343C0F804316368D8F800005A1CDC
:104F4C000233626044F8235000F00EF80020C6E7EC
:104F5C00E8E703205CE703200000000029440B0075
:104F6C00A8E6032070477047704700001D400B00F7
:104F7C0059400B0081400B0085400B0000000000E5
:104F8C000000000000000000D7440B00CD440B00D3
:104F9C00C3440B00B9440B00AD440B00A1440B00FF
:104FAC00B1460B00B9460B0095440B008D440B0029
:104FBC0083440B0079440B00E9460B000000000011
:104FCC0000000000F5440B003F450B0017450B009B
:104FDC00F7440B001F450B0027450B002F450B001A
:104FEC0037450B00000000000000000081450B005D
:104FFC0071450B0073450B006170700000000000E0
:10500C000000000071460B007B460B0085460B0030
:10501C008F460B0099460B00A5460B00B1460B00C2
:10502C00B9460B00C1460B00CD460B00D5460B0014
:10503C00DF460B00E9460B0025592D256D2D256407
:10504C005425483A254D3A2553257A0061736374EB
:10505C00696D65000000000000000000C1480B00F5
:10506C002D490B0005490B00D5470B00D5480B000B
:10507C00F1480B00E3480B00FF480B00C3480B0042
:10508C00C7480B0000000000000000006B490B003B
:10509C00D3490B00A9490B00D5470B009B490B00CA
:1050AC006D490B007D490B00CD490B008D490B0060
:1050BC0065490B000000000000000000C34A0B0013
:1050CC00B94A0B00AF4A0B00654A0B00A34A0B0010
:1050DC00974A0B00B1460B00B9460B008B4A0B00EC
:1050EC00834A0B00794A0B006F4A0B00E9460B0010
:1050FC00005245454E54206D616C6C6F6320737586
:10510C0063636565646564002F746D702F6A656EEA
:10511C006B696E732D4743432D31302D706970656B
:10512C006C696E652D34385F323032303131323447
:10513C005F313630363138303633392F7372632F56
:10514C006E65776C69622F6E65776C69622F6C691E
:10515C0062632F7374646C69622F72616E642E6368
:10516C0000000000D9400B0069440B00E1440B0027
:10517C0061460B00C1470B0069480B0089480B00C6
:10518C00AD480B00CD4A0B000000000000000000F1
:04519C00000000000F
:1051A000040000001400000003000000474E5500FA
:1051B0007E240E7F6F8174813F447DC7D4B3940FEA
:0451C000B999B14B9D
:0451C40000000000E7
:1051C80058500B0048E603200000000000000000D3
:1051D80000000000000000000000000000000000C7
:1051E80000000000000000000000000000000000B7
:1051F80000000000000000000000000000000000A7
:105208000000000000000000000000000000000096
:105218000000000000000000000000000000000086
:0C5228000000000000000000ECE7032084
:10523400FFFFFFFF00000102030405060708090A37
:105244000B0C0D0E0F101112131415161718191A32
:085254001B1C1D1E1F20280079
:04525C00785634123A
:04000003B000401CED
:00000001FF
